{
  "contractName": "Test01",
  "abi": [
    {
      "anonymous": false,
      "inputs": [
        {
          "indexed": false,
          "internalType": "address",
          "name": "farmer",
          "type": "address"
        },
        {
          "indexed": false,
          "internalType": "string",
          "name": "farmerName",
          "type": "string"
        }
      ],
      "name": "FarmerRegistered",
      "type": "event"
    },
    {
      "anonymous": false,
      "inputs": [
        {
          "indexed": false,
          "internalType": "uint256",
          "name": "productId",
          "type": "uint256"
        },
        {
          "indexed": false,
          "internalType": "string",
          "name": "productName",
          "type": "string"
        }
      ],
      "name": "ProductAdded",
      "type": "event"
    },
    {
      "anonymous": false,
      "inputs": [
        {
          "indexed": false,
          "internalType": "uint256",
          "name": "productId",
          "type": "uint256"
        },
        {
          "indexed": false,
          "internalType": "string",
          "name": "updatedBy",
          "type": "string"
        }
      ],
      "name": "ProductUpdated",
      "type": "event"
    },
    {
      "inputs": [
        {
          "internalType": "uint256",
          "name": "",
          "type": "uint256"
        }
      ],
      "name": "products",
      "outputs": [
        {
          "internalType": "uint256",
          "name": "productId",
          "type": "uint256"
        },
        {
          "internalType": "string",
          "name": "productName",
          "type": "string"
        },
        {
          "internalType": "string",
          "name": "imageHash",
          "type": "string"
        },
        {
          "internalType": "string",
          "name": "plantingDate",
          "type": "string"
        },
        {
          "internalType": "string",
          "name": "harvestDate",
          "type": "string"
        },
        {
          "internalType": "string",
          "name": "farmerName",
          "type": "string"
        },
        {
          "internalType": "string",
          "name": "distributorName",
          "type": "string"
        },
        {
          "internalType": "string",
          "name": "retailerName",
          "type": "string"
        },
        {
          "internalType": "uint256",
          "name": "productWeight",
          "type": "uint256"
        },
        {
          "internalType": "enum Test01.ProductStatus",
          "name": "status",
          "type": "uint8"
        }
      ],
      "stateMutability": "view",
      "type": "function",
      "constant": true
    },
    {
      "inputs": [
        {
          "internalType": "address",
          "name": "",
          "type": "address"
        }
      ],
      "name": "users",
      "outputs": [
        {
          "internalType": "string",
          "name": "userName",
          "type": "string"
        },
        {
          "internalType": "string",
          "name": "role",
          "type": "string"
        },
        {
          "internalType": "bool",
          "name": "isRegistered",
          "type": "bool"
        }
      ],
      "stateMutability": "view",
      "type": "function",
      "constant": true
    },
    {
      "inputs": [
        {
          "internalType": "address",
          "name": "_userAddress",
          "type": "address"
        }
      ],
      "name": "getUserInfo",
      "outputs": [
        {
          "internalType": "string",
          "name": "",
          "type": "string"
        },
        {
          "internalType": "string",
          "name": "",
          "type": "string"
        }
      ],
      "stateMutability": "view",
      "type": "function",
      "constant": true
    },
    {
      "inputs": [
        {
          "internalType": "string",
          "name": "_userName",
          "type": "string"
        },
        {
          "internalType": "string",
          "name": "_role",
          "type": "string"
        }
      ],
      "name": "registerUser",
      "outputs": [],
      "stateMutability": "nonpayable",
      "type": "function"
    },
    {
      "inputs": [
        {
          "internalType": "uint256",
          "name": "_productId",
          "type": "uint256"
        },
        {
          "internalType": "string",
          "name": "_imageHash",
          "type": "string"
        },
        {
          "internalType": "string",
          "name": "_productName",
          "type": "string"
        },
        {
          "internalType": "string",
          "name": "_plantingDate",
          "type": "string"
        },
        {
          "internalType": "string",
          "name": "_harvestDate",
          "type": "string"
        },
        {
          "internalType": "string",
          "name": "_farmerName",
          "type": "string"
        }
      ],
      "name": "addProduct",
      "outputs": [],
      "stateMutability": "nonpayable",
      "type": "function"
    },
    {
      "inputs": [
        {
          "internalType": "uint256",
          "name": "_productId",
          "type": "uint256"
        },
        {
          "internalType": "string",
          "name": "_distributorName",
          "type": "string"
        },
        {
          "internalType": "uint256",
          "name": "_productWeight",
          "type": "uint256"
        }
      ],
      "name": "updateDistributorInfo",
      "outputs": [],
      "stateMutability": "nonpayable",
      "type": "function"
    },
    {
      "inputs": [
        {
          "internalType": "uint256",
          "name": "_productId",
          "type": "uint256"
        },
        {
          "internalType": "string",
          "name": "_retailerName",
          "type": "string"
        }
      ],
      "name": "updateRetailerInfo",
      "outputs": [],
      "stateMutability": "nonpayable",
      "type": "function"
    },
    {
      "inputs": [
        {
          "internalType": "uint256",
          "name": "_productId",
          "type": "uint256"
        }
      ],
      "name": "getProductInfo",
      "outputs": [
        {
          "components": [
            {
              "internalType": "uint256",
              "name": "productId",
              "type": "uint256"
            },
            {
              "internalType": "string",
              "name": "productName",
              "type": "string"
            },
            {
              "internalType": "string",
              "name": "imageHash",
              "type": "string"
            },
            {
              "internalType": "string",
              "name": "plantingDate",
              "type": "string"
            },
            {
              "internalType": "string",
              "name": "harvestDate",
              "type": "string"
            },
            {
              "internalType": "string",
              "name": "farmerName",
              "type": "string"
            },
            {
              "internalType": "string",
              "name": "distributorName",
              "type": "string"
            },
            {
              "internalType": "string",
              "name": "retailerName",
              "type": "string"
            },
            {
              "internalType": "uint256",
              "name": "productWeight",
              "type": "uint256"
            },
            {
              "internalType": "enum Test01.ProductStatus",
              "name": "status",
              "type": "uint8"
            }
          ],
          "internalType": "struct Test01.Product",
          "name": "",
          "type": "tuple"
        }
      ],
      "stateMutability": "view",
      "type": "function",
      "constant": true
    }
  ],
  "bytecode": "0x608060405234801561001057600080fd5b5061294b806100206000396000f3fe608060405234801561001057600080fd5b50600436106100885760003560e01c80637acc0b201161005b5780637acc0b2014610126578063a87430ba1461015f578063b07bb03a14610191578063c9e6db18146101ad57610088565b80631d2e4afd1461008d578063217c80d2146100a95780636386c1c7146100c557806379a85e6c146100f6575b600080fd5b6100a760048036038101906100a29190611d2d565b6101c9565b005b6100c360048036038101906100be9190611dc2565b610517565b005b6100df60048036038101906100da9190611d04565b6107d7565b6040516100ed92919061246b565b60405180910390f35b610110600480360381019061010b9190611d99565b6109bf565b60405161011d9190612587565b60405180910390f35b610140600480360381019061013b9190611d99565b610ecd565b6040516101569a999897969594939291906125d9565b60405180910390f35b61017960048036038101906101749190611d04565b6112e6565b604051610188939291906124a2565b60405180910390f35b6101ab60048036038101906101a69190611e16565b61142d565b005b6101c760048036038101906101c29190611f17565b611859565b005b600160003373ffffffffffffffffffffffffffffffffffffffff1673ffffffffffffffffffffffffffffffffffffffff16815260200190815260200160002060020160009054906101000a900460ff1615610259576040517f08c379a000000000000000000000000000000000000000000000000000000000815260040161025090612527565b60405180910390fd5b7f70c1216471c121e621e116e0411440fac67a4717bb0763c2de9016ac329d688f8160405160200161028b91906123be565b6040516020818303038152906040528051906020012014806102f257507f71c5a35e45a25c49e8f747acd4bcb869814b3d104c492d2554f4c46e12371f57816040516020016102da91906123be565b60405160208183030381529060405280519060200120145b8061034257507f35720142b9ab11c25c53ca13befe9fb19c96957cb76a5f2f70547e5eb0c912d78160405160200161032a91906123be565b60405160208183030381529060405280519060200120145b8061039257507fd4af56a6cb216435050293f7c860ecd82c7b78b5ce1cf71dcb725bc26a5c8cab8160405160200161037a91906123be565b60405160208183030381529060405280519060200120145b6103d1576040517f08c379a00000000000000000000000000000000000000000000000000000000081526004016103c8906124e7565b60405180910390fd5b604051806060016040528083815260200182815260200160011515815250600160003373ffffffffffffffffffffffffffffffffffffffff1673ffffffffffffffffffffffffffffffffffffffff168152602001908152602001600020600082015181600001908051906020019061044a929190611b44565b506020820151816001019080519060200190610467929190611b44565b5060408201518160020160006101000a81548160ff0219169083151502179055509050507f70c1216471c121e621e116e0411440fac67a4717bb0763c2de9016ac329d688f816040516020016104bd91906123be565b604051602081830303815290604052805190602001201415610513577f42558426a946ab6e527d7f548e7bd3e34c2a7ddde555007464cdfbb5f58665f8338360405161050a929190612419565b60405180910390a15b5050565b600160003373ffffffffffffffffffffffffffffffffffffffff1673ffffffffffffffffffffffffffffffffffffffff16815260200190815260200160002060020160009054906101000a900460ff166105a6576040517f08c379a000000000000000000000000000000000000000000000000000000000815260040161059d90612567565b60405180910390fd5b6040518060400160405280600881526020017f72657461696c6572000000000000000000000000000000000000000000000000815250806040516020016105ed91906123be565b60405160208183030381529060405280519060200120600160003373ffffffffffffffffffffffffffffffffffffffff1673ffffffffffffffffffffffffffffffffffffffff16815260200190815260200160002060010160405160200161065591906123d5565b60405160208183030381529060405280519060200120148160405160200161067d91906123ec565b604051602081830303815290604052906106cd576040517f08c379a00000000000000000000000000000000000000000000000000000000081526004016106c49190612449565b60405180910390fd5b506106d783611b23565b610716576040517f08c379a000000000000000000000000000000000000000000000000000000000815260040161070d90612507565b60405180910390fd5b6000806000858152602001908152602001600020905082816007019080519060200190610744929190611b44565b5060038160090160006101000a81548160ff02191690836004811115610793577f4e487b7100000000000000000000000000000000000000000000000000000000600052602160045260246000fd5b02179055507fdad7092ee1ca215307c34b5dd865bb1f9be7e1f0110d230eaefd78fa4742903e84846040516107c99291906125a9565b60405180910390a150505050565b6060806000600160008573ffffffffffffffffffffffffffffffffffffffff1673ffffffffffffffffffffffffffffffffffffffff16815260200190815260200160002060405180606001604052908160008201805461083690612803565b80601f016020809104026020016040519081016040528092919081815260200182805461086290612803565b80156108af5780601f10610884576101008083540402835291602001916108af565b820191906000526020600020905b81548152906001019060200180831161089257829003601f168201915b505050505081526020016001820180546108c890612803565b80601f01602080910402602001604051908101604052809291908181526020018280546108f490612803565b80156109415780601f1061091657610100808354040283529160200191610941565b820191906000526020600020905b81548152906001019060200180831161092457829003601f168201915b505050505081526020016002820160009054906101000a900460ff161515151581525050905080604001516109ab576040517f08c379a00000000000000000000000000000000000000000000000000000000081526004016109a290612567565b60405180910390fd5b806000015181602001519250925050915091565b6109c7611bca565b6109d082611b23565b610a0f576040517f08c379a0000000000000000000000000000000000000000000000000000000008152600401610a0690612507565b60405180910390fd5b6000808381526020019081526020016000206040518061014001604052908160008201548152602001600182018054610a4790612803565b80601f0160208091040260200160405190810160405280929190818152602001828054610a7390612803565b8015610ac05780601f10610a9557610100808354040283529160200191610ac0565b820191906000526020600020905b815481529060010190602001808311610aa357829003601f168201915b50505050508152602001600282018054610ad990612803565b80601f0160208091040260200160405190810160405280929190818152602001828054610b0590612803565b8015610b525780601f10610b2757610100808354040283529160200191610b52565b820191906000526020600020905b815481529060010190602001808311610b3557829003601f168201915b50505050508152602001600382018054610b6b90612803565b80601f0160208091040260200160405190810160405280929190818152602001828054610b9790612803565b8015610be45780601f10610bb957610100808354040283529160200191610be4565b820191906000526020600020905b815481529060010190602001808311610bc757829003601f168201915b50505050508152602001600482018054610bfd90612803565b80601f0160208091040260200160405190810160405280929190818152602001828054610c2990612803565b8015610c765780601f10610c4b57610100808354040283529160200191610c76565b820191906000526020600020905b815481529060010190602001808311610c5957829003601f168201915b50505050508152602001600582018054610c8f90612803565b80601f0160208091040260200160405190810160405280929190818152602001828054610cbb90612803565b8015610d085780601f10610cdd57610100808354040283529160200191610d08565b820191906000526020600020905b815481529060010190602001808311610ceb57829003601f168201915b50505050508152602001600682018054610d2190612803565b80601f0160208091040260200160405190810160405280929190818152602001828054610d4d90612803565b8015610d9a5780601f10610d6f57610100808354040283529160200191610d9a565b820191906000526020600020905b815481529060010190602001808311610d7d57829003601f168201915b50505050508152602001600782018054610db390612803565b80601f0160208091040260200160405190810160405280929190818152602001828054610ddf90612803565b8015610e2c5780601f10610e0157610100808354040283529160200191610e2c565b820191906000526020600020905b815481529060010190602001808311610e0f57829003601f168201915b50505050508152602001600882015481526020016009820160009054906101000a900460ff166004811115610e8a577f4e487b7100000000000000000000000000000000000000000000000000000000600052602160045260246000fd5b6004811115610ec2577f4e487b7100000000000000000000000000000000000000000000000000000000600052602160045260246000fd5b815250509050919050565b6000602052806000526040600020600091509050806000015490806001018054610ef690612803565b80601f0160208091040260200160405190810160405280929190818152602001828054610f2290612803565b8015610f6f5780601f10610f4457610100808354040283529160200191610f6f565b820191906000526020600020905b815481529060010190602001808311610f5257829003601f168201915b505050505090806002018054610f8490612803565b80601f0160208091040260200160405190810160405280929190818152602001828054610fb090612803565b8015610ffd5780601f10610fd257610100808354040283529160200191610ffd565b820191906000526020600020905b815481529060010190602001808311610fe057829003601f168201915b50505050509080600301805461101290612803565b80601f016020809104026020016040519081016040528092919081815260200182805461103e90612803565b801561108b5780601f106110605761010080835404028352916020019161108b565b820191906000526020600020905b81548152906001019060200180831161106e57829003601f168201915b5050505050908060040180546110a090612803565b80601f01602080910402602001604051908101604052809291908181526020018280546110cc90612803565b80156111195780601f106110ee57610100808354040283529160200191611119565b820191906000526020600020905b8154815290600101906020018083116110fc57829003601f168201915b50505050509080600501805461112e90612803565b80601f016020809104026020016040519081016040528092919081815260200182805461115a90612803565b80156111a75780601f1061117c576101008083540402835291602001916111a7565b820191906000526020600020905b81548152906001019060200180831161118a57829003601f168201915b5050505050908060060180546111bc90612803565b80601f01602080910402602001604051908101604052809291908181526020018280546111e890612803565b80156112355780601f1061120a57610100808354040283529160200191611235565b820191906000526020600020905b81548152906001019060200180831161121857829003601f168201915b50505050509080600701805461124a90612803565b80601f016020809104026020016040519081016040528092919081815260200182805461127690612803565b80156112c35780601f10611298576101008083540402835291602001916112c3565b820191906000526020600020905b8154815290600101906020018083116112a657829003601f168201915b5050505050908060080154908060090160009054906101000a900460ff1690508a565b600160205280600052604060002060009150905080600001805461130990612803565b80601f016020809104026020016040519081016040528092919081815260200182805461133590612803565b80156113825780601f1061135757610100808354040283529160200191611382565b820191906000526020600020905b81548152906001019060200180831161136557829003601f168201915b50505050509080600101805461139790612803565b80601f01602080910402602001604051908101604052809291908181526020018280546113c390612803565b80156114105780601f106113e557610100808354040283529160200191611410565b820191906000526020600020905b8154815290600101906020018083116113f357829003601f168201915b5050505050908060020160009054906101000a900460ff16905083565b600160003373ffffffffffffffffffffffffffffffffffffffff1673ffffffffffffffffffffffffffffffffffffffff16815260200190815260200160002060020160009054906101000a900460ff166114bc576040517f08c379a00000000000000000000000000000000000000000000000000000000081526004016114b390612567565b60405180910390fd5b6040518060400160405280600681526020017f6661726d657200000000000000000000000000000000000000000000000000008152508060405160200161150391906123be565b60405160208183030381529060405280519060200120600160003373ffffffffffffffffffffffffffffffffffffffff1673ffffffffffffffffffffffffffffffffffffffff16815260200190815260200160002060010160405160200161156b91906123d5565b60405160208183030381529060405280519060200120148160405160200161159391906123ec565b604051602081830303815290604052906115e3576040517f08c379a00000000000000000000000000000000000000000000000000000000081526004016115da9190612449565b60405180910390fd5b506115ed87611b23565b1561162d576040517f08c379a000000000000000000000000000000000000000000000000000000000815260040161162490612547565b60405180910390fd5b60405180610140016040528088815260200186815260200187815260200185815260200184815260200183815260200160405180602001604052806000815250815260200160405180602001604052806000815250815260200160008152602001600060048111156116c8577f4e487b7100000000000000000000000000000000000000000000000000000000600052602160045260246000fd5b815250600080898152602001908152602001600020600082015181600001556020820151816001019080519060200190611703929190611b44565b506040820151816002019080519060200190611720929190611b44565b50606082015181600301908051906020019061173d929190611b44565b50608082015181600401908051906020019061175a929190611b44565b5060a0820151816005019080519060200190611777929190611b44565b5060c0820151816006019080519060200190611794929190611b44565b5060e08201518160070190805190602001906117b1929190611b44565b5061010082015181600801556101208201518160090160006101000a81548160ff0219169083600481111561180f577f4e487b7100000000000000000000000000000000000000000000000000000000600052602160045260246000fd5b02179055509050507f259101de1f87b04b9ee0332ce5e3cc508014004bf283424aead6cd8692f5cf9887866040516118489291906125a9565b60405180910390a150505050505050565b600160003373ffffffffffffffffffffffffffffffffffffffff1673ffffffffffffffffffffffffffffffffffffffff16815260200190815260200160002060020160009054906101000a900460ff166118e8576040517f08c379a00000000000000000000000000000000000000000000000000000000081526004016118df90612567565b60405180910390fd5b6040518060400160405280600b81526020017f6469737472696275746f720000000000000000000000000000000000000000008152508060405160200161192f91906123be565b60405160208183030381529060405280519060200120600160003373ffffffffffffffffffffffffffffffffffffffff1673ffffffffffffffffffffffffffffffffffffffff16815260200190815260200160002060010160405160200161199791906123d5565b6040516020818303038152906040528051906020012014816040516020016119bf91906123ec565b60405160208183030381529060405290611a0f576040517f08c379a0000000000000000000000000000000000000000000000000000000008152600401611a069190612449565b60405180910390fd5b50611a1984611b23565b611a58576040517f08c379a0000000000000000000000000000000000000000000000000000000008152600401611a4f90612507565b60405180910390fd5b6000806000868152602001908152602001600020905083816006019080519060200190611a86929190611b44565b5082816008018190555060028160090160006101000a81548160ff02191690836004811115611ade577f4e487b7100000000000000000000000000000000000000000000000000000000600052602160045260246000fd5b02179055507fdad7092ee1ca215307c34b5dd865bb1f9be7e1f0110d230eaefd78fa4742903e8585604051611b149291906125a9565b60405180910390a15050505050565b60008160008084815260200190815260200160002060000154149050919050565b828054611b5090612803565b90600052602060002090601f016020900481019282611b725760008555611bb9565b82601f10611b8b57805160ff1916838001178555611bb9565b82800160010185558215611bb9579182015b82811115611bb8578251825591602001919060010190611b9d565b5b509050611bc69190611c55565b5090565b60405180610140016040528060008152602001606081526020016060815260200160608152602001606081526020016060815260200160608152602001606081526020016000815260200160006004811115611c4f577f4e487b7100000000000000000000000000000000000000000000000000000000600052602160045260246000fd5b81525090565b5b80821115611c6e576000816000905550600101611c56565b5090565b6000611c85611c80846126d7565b6126a6565b905082815260208101848484011115611c9d57600080fd5b611ca88482856127c1565b509392505050565b600081359050611cbf816128e7565b92915050565b600082601f830112611cd657600080fd5b8135611ce6848260208601611c72565b91505092915050565b600081359050611cfe816128fe565b92915050565b600060208284031215611d1657600080fd5b6000611d2484828501611cb0565b91505092915050565b60008060408385031215611d4057600080fd5b600083013567ffffffffffffffff811115611d5a57600080fd5b611d6685828601611cc5565b925050602083013567ffffffffffffffff811115611d8357600080fd5b611d8f85828601611cc5565b9150509250929050565b600060208284031215611dab57600080fd5b6000611db984828501611cef565b91505092915050565b60008060408385031215611dd557600080fd5b6000611de385828601611cef565b925050602083013567ffffffffffffffff811115611e0057600080fd5b611e0c85828601611cc5565b9150509250929050565b60008060008060008060c08789031215611e2f57600080fd5b6000611e3d89828a01611cef565b965050602087013567ffffffffffffffff811115611e5a57600080fd5b611e6689828a01611cc5565b955050604087013567ffffffffffffffff811115611e8357600080fd5b611e8f89828a01611cc5565b945050606087013567ffffffffffffffff811115611eac57600080fd5b611eb889828a01611cc5565b935050608087013567ffffffffffffffff811115611ed557600080fd5b611ee189828a01611cc5565b92505060a087013567ffffffffffffffff811115611efe57600080fd5b611f0a89828a01611cc5565b9150509295509295509295565b600080600060608486031215611f2c57600080fd5b6000611f3a86828701611cef565b935050602084013567ffffffffffffffff811115611f5757600080fd5b611f6386828701611cc5565b9250506040611f7486828701611cef565b9150509250925092565b611f8781612754565b82525050565b611f9681612766565b82525050565b611fa5816127af565b82525050565b611fb4816127af565b82525050565b6000611fc58261271c565b611fcf8185612727565b9350611fdf8185602086016127d0565b611fe8816128c2565b840191505092915050565b6000611ffe8261271c565b6120088185612738565b93506120188185602086016127d0565b612021816128c2565b840191505092915050565b60006120378261271c565b6120418185612749565b93506120518185602086016127d0565b80840191505092915050565b6000815461206a81612803565b6120748186612749565b9450600182166000811461208f57600181146120a0576120d3565b60ff198316865281860193506120d3565b6120a985612707565b60005b838110156120cb578154818901526001820191506020810190506120ac565b838801955050505b50505092915050565b60006120e9600d83612738565b91507f496e76616c696420726f6c652e000000000000000000000000000000000000006000830152602082019050919050565b6000612129601383612738565b91507f496e76616c69642070726f647563742049442e000000000000000000000000006000830152602082019050919050565b6000612169601a83612749565b91507f732063616e20706572666f726d207468697320616374696f6e2e0000000000006000830152601a82019050919050565b60006121a9601883612738565b91507f5573657220616c726561647920726567697374657265642e00000000000000006000830152602082019050919050565b60006121e9601a83612738565b91507f50726f6475637420494420616c7265616479206578697374732e0000000000006000830152602082019050919050565b6000612229601483612738565b91507f55736572206e6f7420726567697374657265642e0000000000000000000000006000830152602082019050919050565b6000612269600583612749565b91507f4f6e6c79200000000000000000000000000000000000000000000000000000006000830152600582019050919050565b6000610140830160008301516122b560008601826123a0565b50602083015184820360208601526122cd8282611fba565b915050604083015184820360408601526122e78282611fba565b915050606083015184820360608601526123018282611fba565b9150506080830151848203608086015261231b8282611fba565b91505060a083015184820360a08601526123358282611fba565b91505060c083015184820360c086015261234f8282611fba565b91505060e083015184820360e08601526123698282611fba565b9150506101008301516123806101008601826123a0565b50610120830151612395610120860182611f9c565b508091505092915050565b6123a9816127a5565b82525050565b6123b8816127a5565b82525050565b60006123ca828461202c565b915081905092915050565b60006123e1828461205d565b915081905092915050565b60006123f78261225c565b9150612403828461202c565b915061240e8261215c565b915081905092915050565b600060408201905061242e6000830185611f7e565b81810360208301526124408184611ff3565b90509392505050565b600060208201905081810360008301526124638184611ff3565b905092915050565b600060408201905081810360008301526124858185611ff3565b905081810360208301526124998184611ff3565b90509392505050565b600060608201905081810360008301526124bc8186611ff3565b905081810360208301526124d08185611ff3565b90506124df6040830184611f8d565b949350505050565b60006020820190508181036000830152612500816120dc565b9050919050565b600060208201905081810360008301526125208161211c565b9050919050565b600060208201905081810360008301526125408161219c565b9050919050565b60006020820190508181036000830152612560816121dc565b9050919050565b600060208201905081810360008301526125808161221c565b9050919050565b600060208201905081810360008301526125a1818461229c565b905092915050565b60006040820190506125be60008301856123af565b81810360208301526125d08184611ff3565b90509392505050565b6000610140820190506125ef600083018d6123af565b8181036020830152612601818c611ff3565b90508181036040830152612615818b611ff3565b90508181036060830152612629818a611ff3565b9050818103608083015261263d8189611ff3565b905081810360a08301526126518188611ff3565b905081810360c08301526126658187611ff3565b905081810360e08301526126798186611ff3565b90506126896101008301856123af565b612697610120830184611fab565b9b9a5050505050505050505050565b6000604051905081810181811067ffffffffffffffff821117156126cd576126cc612893565b5b8060405250919050565b600067ffffffffffffffff8211156126f2576126f1612893565b5b601f19601f8301169050602081019050919050565b60008190508160005260206000209050919050565b600081519050919050565b600082825260208201905092915050565b600082825260208201905092915050565b600081905092915050565b600061275f82612785565b9050919050565b60008115159050919050565b6000819050612780826128d3565b919050565b600073ffffffffffffffffffffffffffffffffffffffff82169050919050565b6000819050919050565b60006127ba82612772565b9050919050565b82818337600083830152505050565b60005b838110156127ee5780820151818401526020810190506127d3565b838111156127fd576000848401525b50505050565b6000600282049050600182168061281b57607f821691505b6020821081141561282f5761282e612864565b5b50919050565b7f4e487b7100000000000000000000000000000000000000000000000000000000600052602160045260246000fd5b7f4e487b7100000000000000000000000000000000000000000000000000000000600052602260045260246000fd5b7f4e487b7100000000000000000000000000000000000000000000000000000000600052604160045260246000fd5b6000601f19601f8301169050919050565b600581106128e4576128e3612835565b5b50565b6128f081612754565b81146128fb57600080fd5b50565b612907816127a5565b811461291257600080fd5b5056fea2646970667358221220eb63ec75ee81b938e0d9bd346e1d04cfed236cde252e2c6b86d9eaaf91b1b54164736f6c63430008000033",
  "immutableReferences": {},
  "source": "// SPDX-License-Identifier: MIT  \r\npragma solidity ^0.8.0;  \r\n\r\ncontract Test01 {  \r\n    // S dng enum cho trng thi sn phm  \r\n    enum ProductStatus { Planted, Harvested, Delivered, Received, Completed }  \r\n    \r\n    // Cu trc d liu lu thng tin ca nng sn  \r\n    struct Product {  \r\n        uint256 productId;  \r\n        string productName;  \r\n        string imageHash;  \r\n        string plantingDate;  \r\n        string harvestDate;  \r\n        string farmerName;  \r\n        string distributorName;  \r\n        string retailerName;  \r\n        uint256 productWeight;  \r\n        ProductStatus status;  \r\n    }  \r\n\r\n    // Cu trc d liu cho ngi dng  \r\n    struct User {  \r\n        string userName;  \r\n        string role; // \"farmer\", \"distributor\", \"retailer\", \"consumer\"  \r\n        bool isRegistered;  \r\n    }  \r\n\r\n    // Mapping t productId n sn phm  \r\n    mapping(uint256 => Product) public products;  \r\n\r\n    // Mapping t a ch ngi dng n thng tin ngi dng  \r\n    mapping(address => User) public users;  \r\n\r\n    function getUserInfo(address _userAddress) public view returns (string memory, string memory) {  \r\n        User memory user = users[_userAddress];  \r\n        require(user.isRegistered, \"User not registered.\");  \r\n        return (user.userName, user.role);  \r\n    }  \r\n\r\n    // S kin  \r\n    event FarmerRegistered(address farmer, string farmerName);  \r\n    event ProductAdded(uint256 productId, string productName);  \r\n    event ProductUpdated(uint256 productId, string updatedBy);  \r\n\r\n    // ng k ti khon cho ngi dng (Farmer, Distributor, Retailer, Consumer)  \r\n    function registerUser(string memory _userName, string memory _role) public {  \r\n        require(!users[msg.sender].isRegistered, \"User already registered.\");   \r\n        require(  \r\n            keccak256(abi.encodePacked(_role)) == keccak256(\"farmer\") ||  \r\n            keccak256(abi.encodePacked(_role)) == keccak256(\"distributor\") ||  \r\n            keccak256(abi.encodePacked(_role)) == keccak256(\"retailer\") ||  \r\n            keccak256(abi.encodePacked(_role)) == keccak256(\"consumer\"),  \r\n            \"Invalid role.\"  \r\n        );  \r\n\r\n        users[msg.sender] = User({  \r\n            userName: _userName,  \r\n            role: _role,  \r\n            isRegistered: true  \r\n        });  \r\n\r\n        if (keccak256(abi.encodePacked(_role)) == keccak256(\"farmer\")) {  \r\n            emit FarmerRegistered(msg.sender, _userName);  \r\n        }  \r\n    }  \r\n\r\n    // Modifier kim tra ngi dng  ng k  \r\n    modifier onlyRegistered() {  \r\n        require(users[msg.sender].isRegistered, \"User not registered.\");  \r\n        _;  \r\n    }  \r\n\r\n    // Modifier kim tra vai tr ngi dng  \r\n    modifier onlyRole(string memory _role) {  \r\n        require(  \r\n            keccak256(abi.encodePacked(users[msg.sender].role)) == keccak256(abi.encodePacked(_role)),   \r\n            string(abi.encodePacked(\"Only \", _role, \"s can perform this action.\"))  \r\n        );  \r\n        _;  \r\n    }  \r\n\r\n    // Kim tra nu productId  tn ti  \r\n    function productExists(uint256 _productId) internal view returns (bool) {  \r\n        return products[_productId].productId == _productId;  \r\n    }  \r\n\r\n    // Nng dn thm thng tin nng sn  \r\n    function addProduct(  \r\n        uint256 _productId, // now accepting productId as parameter  \r\n        string memory _imageHash,  \r\n        string memory _productName,  \r\n        string memory _plantingDate,  \r\n        string memory _harvestDate,  \r\n        string memory _farmerName  \r\n    ) public onlyRegistered onlyRole(\"farmer\") {  \r\n        require(!productExists(_productId), \"Product ID already exists.\"); // check if the product ID already exists  \r\n\r\n        products[_productId] = Product({  \r\n            productId: _productId,  \r\n            productName: _productName,  \r\n            imageHash: _imageHash,  \r\n            plantingDate: _plantingDate,  \r\n            harvestDate: _harvestDate,  \r\n            farmerName: _farmerName,  \r\n            distributorName: \"\",  \r\n            retailerName: \"\",  \r\n            productWeight: 0,  \r\n            status: ProductStatus.Planted  \r\n        });  \r\n\r\n        emit ProductAdded(_productId, _productName);  \r\n    }  \r\n\r\n    // Nh phn phi cp nht thng tin sn phm  \r\n    function updateDistributorInfo(  \r\n        uint256 _productId,  \r\n        string memory _distributorName,  \r\n        uint256 _productWeight  \r\n    ) public onlyRegistered onlyRole(\"distributor\") {  \r\n        require(productExists(_productId), \"Invalid product ID.\"); // use the productExists function here  \r\n\r\n        Product storage product = products[_productId];  \r\n        product.distributorName = _distributorName;  \r\n        product.productWeight = _productWeight;  \r\n        product.status = ProductStatus.Delivered;  \r\n\r\n        emit ProductUpdated(_productId, _distributorName);  \r\n    }  \r\n\r\n    // Nh bn l cp nht thng tin sn phm  \r\n    function updateRetailerInfo(  \r\n        uint256 _productId,  \r\n        string memory _retailerName  \r\n    ) public onlyRegistered onlyRole(\"retailer\") {  \r\n        require(productExists(_productId), \"Invalid product ID.\"); // use the productExists function here  \r\n\r\n        Product storage product = products[_productId];  \r\n        product.retailerName = _retailerName;  \r\n        product.status = ProductStatus.Received;  \r\n\r\n        emit ProductUpdated(_productId, _retailerName);  \r\n    }  \r\n\r\n    // Ngi tiu dng truy xut ngun gc sn phm  \r\n    function getProductInfo(uint256 _productId) public view returns (Product memory) {  \r\n        require(productExists(_productId), \"Invalid product ID.\"); // use the productExists function here  \r\n        return products[_productId];  \r\n    }  \r\n}",
  "sourcePath": "D:\\Learning+Blockcahin\\B2105616_B2105599_ToVanHuong_LeHuuHoangAnh_CodeDuAn\\contracts\\Test01.sol",
  "compiler": {
    "name": "solc",
    "version": "0.8.0+commit.c7dfd78e.Emscripten.clang"
  },
  "schemaVersion": "3.4.16",
  "updatedAt": "2024-12-02T15:25:02.058Z",
  "networkType": "ethereum",
  "devdoc": {
    "kind": "dev",
    "methods": {},
    "version": 1
  },
  "userdoc": {
    "kind": "user",
    "methods": {},
    "version": 1
  }
}